{
  "address": "0x612Bb040df7E14E712c2eAD949ECe9d137bcE471",
  "abi": [
    {
      "anonymous": false,
      "inputs": [
        {
          "indexed": false,
          "internalType": "uint256",
          "name": "amount",
          "type": "uint256"
        }
      ],
      "name": "LiquiditySupplied",
      "type": "event"
    },
    {
      "anonymous": false,
      "inputs": [
        {
          "indexed": false,
          "internalType": "uint256",
          "name": "amount",
          "type": "uint256"
        }
      ],
      "name": "LiquidityWithdrawn",
      "type": "event"
    },
    {
      "inputs": [
        {
          "internalType": "address",
          "name": "pool",
          "type": "address"
        },
        {
          "internalType": "address",
          "name": "underlying",
          "type": "address"
        }
      ],
      "name": "fetchAssets",
      "outputs": [
        {
          "internalType": "address",
          "name": "",
          "type": "address"
        }
      ],
      "stateMutability": "view",
      "type": "function"
    }
  ],
  "transactionHash": "0x1ccf6f3d49d7270b69cc4e85265a5d12182919dcdc3d7a513d797dad15826f04",
  "args": [],
  "numDeployments": 2,
  "solcInputHash": "0b74d0ee8627b7b594945c5c338dc89b",
  "bytecode": "0x610363610034600b8282823980515f1a607314602857634e487b7160e01b5f525f60045260245ffd5b305f52607381538281f3fe7300000000000000000000000000000000000000003014608060405260043610610034575f3560e01c80635f90e91f14610038575b5f5ffd5b61004b61004636600461011f565b610074565b60405173ffffffffffffffffffffffffffffffffffffffff909116815260200160405180910390f35b6040516335ea6a7560e01b815273ffffffffffffffffffffffffffffffffffffffff82811660048301525f9182918516906335ea6a75906024016101e060405180830381865afa1580156100ca573d5f5f3e3d5ffd5b505050506040513d601f19601f820116820180604052508101906100ee919061022c565b6101000151949350505050565b73ffffffffffffffffffffffffffffffffffffffff8116811461011c575f5ffd5b50565b5f5f60408385031215610130575f5ffd5b823561013b816100fb565b9150602083013561014b816100fb565b809150509250929050565b6040516101e0810167ffffffffffffffff8111828210171561018657634e487b7160e01b5f52604160045260245ffd5b60405290565b5f6020828403121561019c575f5ffd5b6040516020810167ffffffffffffffff811182821017156101cb57634e487b7160e01b5f52604160045260245ffd5b6040529151825250919050565b80516fffffffffffffffffffffffffffffffff811681146101f7575f5ffd5b919050565b805164ffffffffff811681146101f7575f5ffd5b805161ffff811681146101f7575f5ffd5b80516101f7816100fb565b5f6101e082840312801561023e575f5ffd5b50610247610156565b610251848461018c565b815261025f602084016101d8565b6020820152610270604084016101d8565b6040820152610281606084016101d8565b6060820152610292608084016101d8565b60808201526102a360a084016101d8565b60a08201526102b460c084016101fc565b60c08201526102c560e08401610210565b60e08201526102d76101008401610221565b6101008201526102ea6101208401610221565b6101208201526102fd6101408401610221565b6101408201526103106101608401610221565b61016082015261032361018084016101d8565b6101808201526103366101a084016101d8565b6101a08201526103496101c084016101d8565b6101c0820152939250505056fea164736f6c634300081b000a",
  "devdoc": {
    "details": "AAVE Documentation https://github.com/aave-dao/aave-v3-origin",
    "events": {
      "LiquiditySupplied(uint256)": {
        "params": {
          "amount": "Amount supplied"
        }
      },
      "LiquidityWithdrawn(uint256)": {
        "params": {
          "amount": "Amount withdrawn"
        }
      }
    },
    "kind": "dev",
    "methods": {
      "fetchAssets(address,address)": {
        "params": {
          "pool": "AAVE pool address",
          "underlying": "Underlying asset address"
        },
        "returns": {
          "_0": "aToken address"
        }
      }
    },
    "title": "AaveAdapter",
    "version": 1
  },
  "userdoc": {
    "events": {
      "LiquiditySupplied(uint256)": {
        "notice": "Emitted when liquidity is supplied to AAVE"
      },
      "LiquidityWithdrawn(uint256)": {
        "notice": "Emitted when liquidity is withdrawn from AAVE"
      }
    },
    "kind": "user",
    "methods": {
      "fetchAssets(address,address)": {
        "notice": "Fetch the aToken address for a given underlying asset from AAVE pool"
      }
    },
    "version": 1
  },
  "storageLayout": {
    "storage": [],
    "types": null
  }
}