{
  "address": "0x4c6faABbDD81B1c8A8d6204BA3A511467e081205",
  "abi": [
    {
      "inputs": [
        {
          "internalType": "address",
          "name": "aavePoolAddress_",
          "type": "address"
        },
        {
          "internalType": "address",
          "name": "wrapperAddress_",
          "type": "address"
        },
        {
          "internalType": "string",
          "name": "name_",
          "type": "string"
        },
        {
          "internalType": "string",
          "name": "symbol_",
          "type": "string"
        }
      ],
      "stateMutability": "nonpayable",
      "type": "constructor"
    },
    {
      "inputs": [
        {
          "internalType": "uint256",
          "name": "requestId",
          "type": "uint256"
        }
      ],
      "name": "ERC7984InvalidGatewayRequest",
      "type": "error"
    },
    {
      "inputs": [
        {
          "internalType": "address",
          "name": "receiver",
          "type": "address"
        }
      ],
      "name": "ERC7984InvalidReceiver",
      "type": "error"
    },
    {
      "inputs": [
        {
          "internalType": "address",
          "name": "sender",
          "type": "address"
        }
      ],
      "name": "ERC7984InvalidSender",
      "type": "error"
    },
    {
      "inputs": [
        {
          "internalType": "address",
          "name": "caller",
          "type": "address"
        }
      ],
      "name": "ERC7984UnauthorizedCaller",
      "type": "error"
    },
    {
      "inputs": [
        {
          "internalType": "address",
          "name": "holder",
          "type": "address"
        },
        {
          "internalType": "address",
          "name": "spender",
          "type": "address"
        }
      ],
      "name": "ERC7984UnauthorizedSpender",
      "type": "error"
    },
    {
      "inputs": [
        {
          "internalType": "euint64",
          "name": "amount",
          "type": "bytes32"
        },
        {
          "internalType": "address",
          "name": "user",
          "type": "address"
        }
      ],
      "name": "ERC7984UnauthorizedUseOfEncryptedAmount",
      "type": "error"
    },
    {
      "inputs": [
        {
          "internalType": "address",
          "name": "holder",
          "type": "address"
        }
      ],
      "name": "ERC7984ZeroBalance",
      "type": "error"
    },
    {
      "inputs": [],
      "name": "InvalidKMSSignatures",
      "type": "error"
    },
    {
      "inputs": [],
      "name": "MissingDistinctUsers",
      "type": "error"
    },
    {
      "inputs": [],
      "name": "RoundNotFinalized",
      "type": "error"
    },
    {
      "inputs": [
        {
          "internalType": "bytes32",
          "name": "handle",
          "type": "bytes32"
        },
        {
          "internalType": "address",
          "name": "sender",
          "type": "address"
        }
      ],
      "name": "SenderNotAllowedToUseHandle",
      "type": "error"
    },
    {
      "inputs": [],
      "name": "TooEarlyForNextRound",
      "type": "error"
    },
    {
      "inputs": [],
      "name": "UndefinedUnwrapRequest",
      "type": "error"
    },
    {
      "inputs": [],
      "name": "UnfinalizedUnwrapRequest",
      "type": "error"
    },
    {
      "inputs": [],
      "name": "ZamaProtocolUnsupported",
      "type": "error"
    },
    {
      "anonymous": false,
      "inputs": [
        {
          "indexed": true,
          "internalType": "euint64",
          "name": "encryptedAmount",
          "type": "bytes32"
        },
        {
          "indexed": true,
          "internalType": "address",
          "name": "requester",
          "type": "address"
        }
      ],
      "name": "AmountDiscloseRequested",
      "type": "event"
    },
    {
      "anonymous": false,
      "inputs": [
        {
          "indexed": true,
          "internalType": "euint64",
          "name": "encryptedAmount",
          "type": "bytes32"
        },
        {
          "indexed": false,
          "internalType": "uint64",
          "name": "amount",
          "type": "uint64"
        }
      ],
      "name": "AmountDisclosed",
      "type": "event"
    },
    {
      "anonymous": false,
      "inputs": [
        {
          "indexed": true,
          "internalType": "address",
          "name": "from",
          "type": "address"
        },
        {
          "indexed": true,
          "internalType": "address",
          "name": "to",
          "type": "address"
        },
        {
          "indexed": true,
          "internalType": "euint64",
          "name": "amount",
          "type": "bytes32"
        }
      ],
      "name": "ConfidentialTransfer",
      "type": "event"
    },
    {
      "anonymous": false,
      "inputs": [
        {
          "indexed": true,
          "internalType": "uint256",
          "name": "roundId",
          "type": "uint256"
        },
        {
          "indexed": false,
          "internalType": "euint64",
          "name": "roundDelta",
          "type": "bytes32"
        }
      ],
      "name": "LendingRoundUpdated",
      "type": "event"
    },
    {
      "anonymous": false,
      "inputs": [
        {
          "indexed": false,
          "internalType": "uint256",
          "name": "amount",
          "type": "uint256"
        }
      ],
      "name": "LiquiditySupplied",
      "type": "event"
    },
    {
      "anonymous": false,
      "inputs": [
        {
          "indexed": false,
          "internalType": "uint256",
          "name": "amount",
          "type": "uint256"
        }
      ],
      "name": "LiquidityWithdrawn",
      "type": "event"
    },
    {
      "anonymous": false,
      "inputs": [
        {
          "indexed": true,
          "internalType": "address",
          "name": "holder",
          "type": "address"
        },
        {
          "indexed": true,
          "internalType": "address",
          "name": "operator",
          "type": "address"
        },
        {
          "indexed": false,
          "internalType": "uint48",
          "name": "until",
          "type": "uint48"
        }
      ],
      "name": "OperatorSet",
      "type": "event"
    },
    {
      "anonymous": false,
      "inputs": [
        {
          "indexed": false,
          "internalType": "bytes32[]",
          "name": "handlesList",
          "type": "bytes32[]"
        },
        {
          "indexed": false,
          "internalType": "bytes",
          "name": "abiEncodedCleartexts",
          "type": "bytes"
        }
      ],
      "name": "PublicDecryptionVerified",
      "type": "event"
    },
    {
      "inputs": [],
      "name": "AAVE_POOL_ADDRESS",
      "outputs": [
        {
          "internalType": "address",
          "name": "",
          "type": "address"
        }
      ],
      "stateMutability": "view",
      "type": "function"
    },
    {
      "inputs": [],
      "name": "MIN_DISTINCT_USERS",
      "outputs": [
        {
          "internalType": "uint256",
          "name": "",
          "type": "uint256"
        }
      ],
      "stateMutability": "view",
      "type": "function"
    },
    {
      "inputs": [],
      "name": "MIN_TIME_BETWEEN_ROUNDS",
      "outputs": [
        {
          "internalType": "uint256",
          "name": "",
          "type": "uint256"
        }
      ],
      "stateMutability": "view",
      "type": "function"
    },
    {
      "inputs": [],
      "name": "aAsset",
      "outputs": [
        {
          "internalType": "address",
          "name": "",
          "type": "address"
        }
      ],
      "stateMutability": "view",
      "type": "function"
    },
    {
      "inputs": [],
      "name": "asset",
      "outputs": [
        {
          "internalType": "address",
          "name": "",
          "type": "address"
        }
      ],
      "stateMutability": "view",
      "type": "function"
    },
    {
      "inputs": [],
      "name": "callNextRound",
      "outputs": [],
      "stateMutability": "nonpayable",
      "type": "function"
    },
    {
      "inputs": [
        {
          "internalType": "address",
          "name": "account",
          "type": "address"
        }
      ],
      "name": "confidentialBalanceOf",
      "outputs": [
        {
          "internalType": "euint64",
          "name": "",
          "type": "bytes32"
        }
      ],
      "stateMutability": "view",
      "type": "function"
    },
    {
      "inputs": [],
      "name": "confidentialProtocolId",
      "outputs": [
        {
          "internalType": "uint256",
          "name": "",
          "type": "uint256"
        }
      ],
      "stateMutability": "view",
      "type": "function"
    },
    {
      "inputs": [],
      "name": "confidentialTotalSupply",
      "outputs": [
        {
          "internalType": "euint64",
          "name": "",
          "type": "bytes32"
        }
      ],
      "stateMutability": "view",
      "type": "function"
    },
    {
      "inputs": [
        {
          "internalType": "address",
          "name": "to",
          "type": "address"
        },
        {
          "internalType": "externalEuint64",
          "name": "encryptedAmount",
          "type": "bytes32"
        },
        {
          "internalType": "bytes",
          "name": "inputProof",
          "type": "bytes"
        }
      ],
      "name": "confidentialTransfer",
      "outputs": [
        {
          "internalType": "euint64",
          "name": "",
          "type": "bytes32"
        }
      ],
      "stateMutability": "nonpayable",
      "type": "function"
    },
    {
      "inputs": [
        {
          "internalType": "address",
          "name": "to",
          "type": "address"
        },
        {
          "internalType": "euint64",
          "name": "amount",
          "type": "bytes32"
        }
      ],
      "name": "confidentialTransfer",
      "outputs": [
        {
          "internalType": "euint64",
          "name": "",
          "type": "bytes32"
        }
      ],
      "stateMutability": "nonpayable",
      "type": "function"
    },
    {
      "inputs": [
        {
          "internalType": "address",
          "name": "to",
          "type": "address"
        },
        {
          "internalType": "euint64",
          "name": "amount",
          "type": "bytes32"
        },
        {
          "internalType": "bytes",
          "name": "data",
          "type": "bytes"
        }
      ],
      "name": "confidentialTransferAndCall",
      "outputs": [
        {
          "internalType": "euint64",
          "name": "transferred",
          "type": "bytes32"
        }
      ],
      "stateMutability": "nonpayable",
      "type": "function"
    },
    {
      "inputs": [
        {
          "internalType": "address",
          "name": "to",
          "type": "address"
        },
        {
          "internalType": "externalEuint64",
          "name": "encryptedAmount",
          "type": "bytes32"
        },
        {
          "internalType": "bytes",
          "name": "inputProof",
          "type": "bytes"
        },
        {
          "internalType": "bytes",
          "name": "data",
          "type": "bytes"
        }
      ],
      "name": "confidentialTransferAndCall",
      "outputs": [
        {
          "internalType": "euint64",
          "name": "transferred",
          "type": "bytes32"
        }
      ],
      "stateMutability": "nonpayable",
      "type": "function"
    },
    {
      "inputs": [
        {
          "internalType": "address",
          "name": "from",
          "type": "address"
        },
        {
          "internalType": "address",
          "name": "to",
          "type": "address"
        },
        {
          "internalType": "externalEuint64",
          "name": "encryptedAmount",
          "type": "bytes32"
        },
        {
          "internalType": "bytes",
          "name": "inputProof",
          "type": "bytes"
        }
      ],
      "name": "confidentialTransferFrom",
      "outputs": [
        {
          "internalType": "euint64",
          "name": "transferred",
          "type": "bytes32"
        }
      ],
      "stateMutability": "nonpayable",
      "type": "function"
    },
    {
      "inputs": [
        {
          "internalType": "address",
          "name": "from",
          "type": "address"
        },
        {
          "internalType": "address",
          "name": "to",
          "type": "address"
        },
        {
          "internalType": "euint64",
          "name": "amount",
          "type": "bytes32"
        }
      ],
      "name": "confidentialTransferFrom",
      "outputs": [
        {
          "internalType": "euint64",
          "name": "transferred",
          "type": "bytes32"
        }
      ],
      "stateMutability": "nonpayable",
      "type": "function"
    },
    {
      "inputs": [
        {
          "internalType": "address",
          "name": "from",
          "type": "address"
        },
        {
          "internalType": "address",
          "name": "to",
          "type": "address"
        },
        {
          "internalType": "externalEuint64",
          "name": "encryptedAmount",
          "type": "bytes32"
        },
        {
          "internalType": "bytes",
          "name": "inputProof",
          "type": "bytes"
        },
        {
          "internalType": "bytes",
          "name": "data",
          "type": "bytes"
        }
      ],
      "name": "confidentialTransferFromAndCall",
      "outputs": [
        {
          "internalType": "euint64",
          "name": "transferred",
          "type": "bytes32"
        }
      ],
      "stateMutability": "nonpayable",
      "type": "function"
    },
    {
      "inputs": [
        {
          "internalType": "address",
          "name": "from",
          "type": "address"
        },
        {
          "internalType": "address",
          "name": "to",
          "type": "address"
        },
        {
          "internalType": "euint64",
          "name": "amount",
          "type": "bytes32"
        },
        {
          "internalType": "bytes",
          "name": "data",
          "type": "bytes"
        }
      ],
      "name": "confidentialTransferFromAndCall",
      "outputs": [
        {
          "internalType": "euint64",
          "name": "transferred",
          "type": "bytes32"
        }
      ],
      "stateMutability": "nonpayable",
      "type": "function"
    },
    {
      "inputs": [],
      "name": "contractURI",
      "outputs": [
        {
          "internalType": "string",
          "name": "",
          "type": "string"
        }
      ],
      "stateMutability": "view",
      "type": "function"
    },
    {
      "inputs": [],
      "name": "currentNumberOfUsers",
      "outputs": [
        {
          "internalType": "uint256",
          "name": "",
          "type": "uint256"
        }
      ],
      "stateMutability": "view",
      "type": "function"
    },
    {
      "inputs": [],
      "name": "currentRound",
      "outputs": [
        {
          "internalType": "uint256",
          "name": "",
          "type": "uint256"
        }
      ],
      "stateMutability": "view",
      "type": "function"
    },
    {
      "inputs": [],
      "name": "decimals",
      "outputs": [
        {
          "internalType": "uint8",
          "name": "",
          "type": "uint8"
        }
      ],
      "stateMutability": "view",
      "type": "function"
    },
    {
      "inputs": [
        {
          "internalType": "euint64",
          "name": "encryptedAmount",
          "type": "bytes32"
        },
        {
          "internalType": "uint64",
          "name": "cleartextAmount",
          "type": "uint64"
        },
        {
          "internalType": "bytes",
          "name": "decryptionProof",
          "type": "bytes"
        }
      ],
      "name": "discloseEncryptedAmount",
      "outputs": [],
      "stateMutability": "nonpayable",
      "type": "function"
    },
    {
      "inputs": [
        {
          "internalType": "address",
          "name": "account",
          "type": "address"
        },
        {
          "internalType": "uint256",
          "name": "roundIndex",
          "type": "uint256"
        }
      ],
      "name": "eAmountToWithdraw",
      "outputs": [
        {
          "internalType": "euint64",
          "name": "eAmount",
          "type": "bytes32"
        }
      ],
      "stateMutability": "view",
      "type": "function"
    },
    {
      "inputs": [
        {
          "internalType": "bytes",
          "name": "abiEncodedClearValues",
          "type": "bytes"
        },
        {
          "internalType": "bytes",
          "name": "decryptionProof",
          "type": "bytes"
        }
      ],
      "name": "executeRound",
      "outputs": [],
      "stateMutability": "nonpayable",
      "type": "function"
    },
    {
      "inputs": [
        {
          "internalType": "uint256",
          "name": "roundIndex",
          "type": "uint256"
        }
      ],
      "name": "finalizeSupply",
      "outputs": [],
      "stateMutability": "nonpayable",
      "type": "function"
    },
    {
      "inputs": [
        {
          "internalType": "address",
          "name": "receiver",
          "type": "address"
        },
        {
          "internalType": "uint256",
          "name": "roundIndex",
          "type": "uint256"
        }
      ],
      "name": "finalizeWithdraw",
      "outputs": [],
      "stateMutability": "nonpayable",
      "type": "function"
    },
    {
      "inputs": [
        {
          "internalType": "address",
          "name": "holder",
          "type": "address"
        },
        {
          "internalType": "address",
          "name": "spender",
          "type": "address"
        }
      ],
      "name": "isOperator",
      "outputs": [
        {
          "internalType": "bool",
          "name": "",
          "type": "bool"
        }
      ],
      "stateMutability": "view",
      "type": "function"
    },
    {
      "inputs": [],
      "name": "lastUpdateTime",
      "outputs": [
        {
          "internalType": "uint256",
          "name": "",
          "type": "uint256"
        }
      ],
      "stateMutability": "view",
      "type": "function"
    },
    {
      "inputs": [],
      "name": "name",
      "outputs": [
        {
          "internalType": "string",
          "name": "",
          "type": "string"
        }
      ],
      "stateMutability": "view",
      "type": "function"
    },
    {
      "inputs": [],
      "name": "nextRoundDelta",
      "outputs": [
        {
          "internalType": "euint64",
          "name": "",
          "type": "bytes32"
        }
      ],
      "stateMutability": "view",
      "type": "function"
    },
    {
      "inputs": [
        {
          "internalType": "address",
          "name": "operator",
          "type": "address"
        },
        {
          "internalType": "address",
          "name": "from",
          "type": "address"
        },
        {
          "internalType": "euint64",
          "name": "eAmount",
          "type": "bytes32"
        },
        {
          "internalType": "bytes",
          "name": "data",
          "type": "bytes"
        }
      ],
      "name": "onConfidentialTransferReceived",
      "outputs": [
        {
          "internalType": "ebool",
          "name": "success",
          "type": "bytes32"
        }
      ],
      "stateMutability": "nonpayable",
      "type": "function"
    },
    {
      "inputs": [
        {
          "internalType": "uint256",
          "name": "round",
          "type": "uint256"
        }
      ],
      "name": "positions",
      "outputs": [
        {
          "internalType": "uint64",
          "name": "position",
          "type": "uint64"
        }
      ],
      "stateMutability": "view",
      "type": "function"
    },
    {
      "inputs": [
        {
          "internalType": "euint64",
          "name": "encryptedAmount",
          "type": "bytes32"
        }
      ],
      "name": "requestDiscloseEncryptedAmount",
      "outputs": [],
      "stateMutability": "nonpayable",
      "type": "function"
    },
    {
      "inputs": [
        {
          "internalType": "externalEuint64",
          "name": "eAmount_",
          "type": "bytes32"
        },
        {
          "internalType": "bytes",
          "name": "inputProof_",
          "type": "bytes"
        }
      ],
      "name": "requestWithdraw",
      "outputs": [],
      "stateMutability": "nonpayable",
      "type": "function"
    },
    {
      "inputs": [
        {
          "internalType": "uint256",
          "name": "round",
          "type": "uint256"
        }
      ],
      "name": "roundDelta",
      "outputs": [
        {
          "internalType": "euint64",
          "name": "roundDelta",
          "type": "bytes32"
        }
      ],
      "stateMutability": "view",
      "type": "function"
    },
    {
      "inputs": [
        {
          "internalType": "address",
          "name": "operator",
          "type": "address"
        },
        {
          "internalType": "uint48",
          "name": "until",
          "type": "uint48"
        }
      ],
      "name": "setOperator",
      "outputs": [],
      "stateMutability": "nonpayable",
      "type": "function"
    },
    {
      "inputs": [
        {
          "internalType": "bytes4",
          "name": "interfaceId",
          "type": "bytes4"
        }
      ],
      "name": "supportsInterface",
      "outputs": [
        {
          "internalType": "bool",
          "name": "",
          "type": "bool"
        }
      ],
      "stateMutability": "view",
      "type": "function"
    },
    {
      "inputs": [],
      "name": "symbol",
      "outputs": [
        {
          "internalType": "string",
          "name": "",
          "type": "string"
        }
      ],
      "stateMutability": "view",
      "type": "function"
    }
  ],
  "transactionHash": "0x323a1035194f89ff2b52b53aed004c64221f1a3b4d6e5cedc8accfaab2c24315",
  "args": [
    "0x6Ae43d3271ff6888e7Fc43Fd7321a503ff738951",
    "0x022521db54b0BfC74d8F76a8838a63494DD00d01",
    "Confidential Lending USDC",
    "clUSDC"
  ],
  "numDeployments": 1,
  "solcInputHash": "57553f20507dce8bb6c9a949effbd58f",
  "bytecode": "0x60e060405234801561000f575f5ffd5b506040516139e13803806139e183398101604081905261002e916105f5565b818160405180602001604052805f8152506100556100506101c760201b60201c565b610376565b60116100618482610704565b50601261006e8382610704565b50601361007b8282610704565b505050506001600160a01b03848116608052600580546001600160a01b031916918516918217905560408051636f307dc360e01b81529051636f307dc3916004808201926020929091908290030181865afa1580156100dc573d5f5f3e3d5ffd5b505050506040513d601f19601f8201168201806040525081019061010091906107be565b6001600160a01b0390811660a0819052608051604051635f90e91f60e01b815292166004830152602482015273612Bb040df7E14E712c2eAD949ECe9d137bcE47190635f90e91f90604401602060405180830381865af4158015610166573d5f5f3e3d5ffd5b505050506040513d601f19601f8201168201806040525081019061018a91906107be565b6001600160a01b031660c05260015f55426002556101af6780000000000000006103fc565b60018190556101bd90610417565b5050505050610827565b604080516060810182525f808252602082018190529181019190915246600103610260575060408051606080820183525f8083526020808401829052928401528251908101835273ca2e8f1f656cd25c01f05d0b243ab1ecd4a8ffb6815273d82385dada1ae3e969447f20a3164f6213100e75918101919091527377627828a55156b04ac0dc0eb30467f1a552bb039181019190915290565b4662aa36a7036102df575060408051606080820183525f8083526020808401829052928401528251908101835273f0ffdc93b7e186bc2f8cb3daa75d86d1930a433d81527392c920834ec8941d2c77d188936e1f7a6f49c1279181019190915273be0e383937d564d7ff0bc3b46c51f0bf8d5c311a9181019190915290565b46617a690361035d575060408051606080820183525f808352602080840182905292840152825190810183527350157cffd6bbfa2dece204a89ec419c23ef5755d815273e3a9105a3a932253a70f126eb1e3b589c643dd249181019190915273901f8942346f7ab3a01f6d7613119bca447bb0309181019190915290565b6040516373cac13b60e01b815260040160405180910390fd5b80515f5160206139c15f395f51905f5280546001600160a01b03199081166001600160a01b039384161790915560208301515f5160206139a15f395f51905f528054831691841691909117905560408301517f9e7b61f58c47dc699ac88507c4f5bb9f121c03808c5676a8078fe583e46497028054909216921691909117905550565b50565b5f6104116001600160401b0383166005610437565b92915050565b5f81610429576104265f6103fc565b91505b61043382306104ce565b5090565b5f5160206139a15f395f51905f5254604051639cd07acb60e01b81525f915f5160206139c15f395f51905f52916001600160a01b0390911690639cd07acb9061048690879087906004016107e0565b6020604051808303815f875af11580156104a2573d5f5f3e3d5ffd5b505050506040513d601f19601f820116820180604052508101906104c69190610810565b949350505050565b5f5f5160206139c15f395f51905f528054604051635ca4b5b160e11b8152600481018690526001600160a01b03858116602483015292935091169063b9496b62906044015f604051808303815f87803b158015610529575f5ffd5b505af115801561053b573d5f5f3e3d5ffd5b50505050505050565b6001600160a01b03811681146103f9575f5ffd5b634e487b7160e01b5f52604160045260245ffd5b5f82601f83011261057b575f5ffd5b81516001600160401b0381111561059457610594610558565b604051601f8201601f19908116603f011681016001600160401b03811182821017156105c2576105c2610558565b6040528181528382016020018510156105d9575f5ffd5b8160208501602083015e5f918101602001919091529392505050565b5f5f5f5f60808587031215610608575f5ffd5b845161061381610544565b602086015190945061062481610544565b60408601519093506001600160401b0381111561063f575f5ffd5b61064b8782880161056c565b606087015190935090506001600160401b03811115610668575f5ffd5b6106748782880161056c565b91505092959194509250565b600181811c9082168061069457607f821691505b6020821081036106b257634e487b7160e01b5f52602260045260245ffd5b50919050565b601f8211156106ff57805f5260205f20601f840160051c810160208510156106dd5750805b601f840160051c820191505b818110156106fc575f81556001016106e9565b50505b505050565b81516001600160401b0381111561071d5761071d610558565b6107318161072b8454610680565b846106b8565b6020601f821160018114610763575f831561074c5750848201515b5f19600385901b1c1916600184901b1784556106fc565b5f84815260208120601f198516915b828110156107925787850151825560209485019460019092019101610772565b50848210156107af57868401515f19600387901b60f8161c191681555b50505050600190811b01905550565b5f602082840312156107ce575f5ffd5b81516107d981610544565b9392505050565b828152604081016054831061080357634e487b7160e01b5f52602160045260245ffd5b8260208301529392505050565b5f60208284031215610820575f5ffd5b5051919050565b60805160a05160c05161312661087b5f395f81816104fc015261065101525f8181610367015281816107a6015281816108180152610fef01525f81816103dd015281816107c7015261101101526131265ff3fe608060405234801561000f575f5ffd5b5060043610610282575f3560e01c806395d89b4111610157578063cdc39118116100d2578063e064b9bb11610088578063e8a3d4851161006e578063e8a3d4851461059d578063eb3155b5146105a5578063f89a4f74146105b8575f5ffd5b8063e064b9bb14610581578063e3dca81d14610594575f5ffd5b8063d4febb96116100b8578063d4febb9614610548578063d80618061461055b578063de6421191461056e575f5ffd5b8063cdc39118146104f7578063d0081fc41461051e575f5ffd5b8063a1fe84f311610127578063b6363cf21161010d578063b6363cf2146104c8578063c7b8a75e146104db578063c8f33c91146104ee575f5ffd5b8063a1fe84f3146104ad578063b1af281e146104b5575f5ffd5b806395d89b4114610448578063961463fb1461045057806399fbab88146104585780639da934921461049a575f5ffd5b80633db56aab116102015780635bebed7e116101b75780637a64c7c41161019d5780637a64c7c4146104255780638927b030146104385780638a19c8bc14610440575f5ffd5b80635bebed7e146103ff57806372c771a014610412575f5ffd5b8063537d3c50116101e7578063537d3c50146103bd57806354095227146103d05780635466e24d146103d8575f5ffd5b80633db56aab146103a157806346083bfd146103aa575f5ffd5b80632fb74e6211610256578063344ff1011161023c578063344ff1011461032757806334c457431461034f57806338d52e0f14610362575f5ffd5b80632fb74e6214610305578063313ce56714610318575f5ffd5b8062b147601461028657806301ffc9a71461029b57806306fdde03146102c35780632541714d146102d8575b5f5ffd5b61029961029436600461296c565b6105c0565b005b6102ae6102a93660046129c7565b610a40565b60405190151581526020015b60405180910390f35b6102cb610a76565b6040516102ba9190612a1c565b6102f76102e6366004612a2e565b60076020525f908152604090205481565b6040519081526020016102ba565b6102f7610313366004612a97565b610b06565b604051600681526020016102ba565b6102f7610335366004612aef565b6001600160a01b03165f908152600e602052604090205490565b6102f761035d366004612b0a565b610b59565b6103897f000000000000000000000000000000000000000000000000000000000000000081565b6040516001600160a01b0390911681526020016102ba565b6102f760015481565b6102f76103b8366004612ba7565b610c02565b6102f76103cb366004612a97565b610c7f565b6010546102f7565b6103897f000000000000000000000000000000000000000000000000000000000000000081565b6102f761040d366004612c15565b610ce1565b610299610420366004612c15565b610d33565b610299610433366004612c3f565b610de7565b6102f7610ee0565b6102f75f5481565b6102cb610eee565b6102f7607881565b610481610466366004612a2e565b600d6020525f908152604090205467ffffffffffffffff1681565b60405167ffffffffffffffff90911681526020016102ba565b6102996104a8366004612a2e565b610efd565b610299611060565b6102996104c3366004612c9c565b611111565b6102ae6104d6366004612cdc565b611206565b6102f76104e9366004612ba7565b611258565b6102f760025481565b6103897f000000000000000000000000000000000000000000000000000000000000000081565b6102f761052c366004612c15565b600b60209081525f928352604080842090915290825290205481565b610299610556366004612d13565b6112f1565b610299610569366004612a2e565b611300565b6102f761057c366004612d49565b611378565b6102f761058f366004612ba7565b6113d4565b6102f760035481565b6102cb611459565b6102f76105b3366004612dd4565b611468565b6102f7600281565b6040805160018082528183019092525f91602080830190803683370190505090506105ea60015490565b815f815181106105fc576105fc612e12565b602002602001018181525050610613818484611507565b5f838060200190518101906106289190612e26565b600480546040516370a0823160e01b815230928101929092529192505f91906001600160a01b037f000000000000000000000000000000000000000000000000000000000000000016906370a0823190602401602060405180830381865afa158015610696573d5f5f3e3d5ffd5b505050506040513d601f19601f820116820180604052508101906106ba9190612e41565b6106c49190612e6c565b90505f5f600454116106d6575f6106f1565b6004546106e76305f5e10084612e7f565b6106f19190612e96565b90508060095f60015f546107059190612e6c565b815260208101919091526040015f2054610729919067ffffffffffffffff16612eb5565b5f80548152600960209081526040808320805467ffffffffffffffff95861667ffffffffffffffff199182161790915583548452600d909252909120805492861692909116821790556780000000000000001115610900575f61079484678000000000000000612ed5565b67ffffffffffffffff1690505f6107ec7f00000000000000000000000000000000000000000000000000000000000000007f000000000000000000000000000000000000000000000000000000000000000084611572565b60055460405163095ea7b360e01b81526001600160a01b039182166004820152602481018390529192507f0000000000000000000000000000000000000000000000000000000000000000169063095ea7b3906044016020604051808303815f875af115801561085e573d5f5f3e3d5ffd5b505050506040513d601f19601f820116820180604052508101906108829190612ef5565b50600554604051635f9bb63d60e11b8152306004820152602481018390526001600160a01b039091169063bf376c7a906044015f604051808303815f87803b1580156108cc575f5ffd5b505af11580156108de573d5f5f3e3d5ffd5b505050508060045f8282546108f39190612e6c565b909155506109ff92505050565b67800000000000000067ffffffffffffffff841611156109ff575f61092d67800000000000000085612ed5565b90505f6109398261162d565b6005549091506109539082906001600160a01b0316611643565b50600554604051633a3057f560e21b815230600482018190526024820152604481018390526001600160a01b039091169063e8c15fd4906064016020604051808303815f875af11580156109a9573d5f5f3e3d5ffd5b505050506040513d601f19601f820116820180604052508101906109cd9190612e41565b508167ffffffffffffffff1660045f8282546109e99190612f14565b90915550505f80548152600c6020526040902055505b5f5f8154610a0c90612f27565b90915550426002555f600355610a2967800000000000000061162d565b6001819055610a3790611666565b50505050505050565b5f6001600160e01b031982166312563ca960e21b1480610a7057506301ffc9a760e01b6001600160e01b03198316145b92915050565b606060118054610a8590612f3f565b80601f0160208091040260200160405190810160405280929190818152602001828054610ab190612f3f565b8015610afc5780601f10610ad357610100808354040283529160200191610afc565b820191905f5260205f20905b815481529060010190602001808311610adf57829003601f168201915b5050505050905090565b5f610b503386610b4b8787878080601f0160208091040260200160405190810160405280939291908181526020018383808284375f9201919091525061168692505050565b6116d3565b95945050505050565b5f610b648833611206565b88339091610b9d57604051630f3e596760e31b81526001600160a01b039283166004820152911660248201526044015b60405180910390fd5b5050610bea8888610be38989898080601f0160208091040260200160405190810160405280939291908181526020018383808284375f9201919091525061168692505050565b8686611751565b9050610bf68133611643565b50979650505050505050565b6005545f906001600160a01b03163303610c5f57610c1f856117a8565b610c2985856118c9565b50610c338561190a565b610c3f6001548561195a565b6001819055610c4d90611666565b50610c586001611988565b9050610c6b565b610c685f611988565b90505b610c7581336119a3565b5095945050505050565b5f610c8a84336119bf565b84339091610cbd576040516367cfe80560e01b815260048101929092526001600160a01b03166024820152604401610b94565b5050610ccc3386868686611751565b9050610cd88133611643565b50949350505050565b5f610cec82336119bf565b82339091610d1f576040516367cfe80560e01b815260048101929092526001600160a01b03166024820152604401610b94565b5050610d2c3384846116d3565b9392505050565b5f548110610d5457604051633562af9d60e11b815260040160405180910390fd5b6005546001600160a01b038381165f818152600b6020908152604080832087845290915290819020549051632df5f6bf60e11b815260048101929092526024820152911690635bebed7e906044016020604051808303815f875af1158015610dbe573d5f5f3e3d5ffd5b505050506040513d601f19601f82011682018060405250810190610de29190612e41565b505050565b5f610e278484848080601f0160208091040260200160405190810160405280939291908181526020018383808284375f9201919091525061168692505050565b9050610e32336117a8565b610e3c33826119ca565b50610e463361190a565b335f908152600b6020908152604080832083548452909152902054610e6b908261195a565b335f908152600b602090815260408083208354845290915280822092909255805481522054610e9990611666565b50335f818152600b6020908152604080832083548452909152902054610ebe91611a0b565b50610ecb60015482611a1a565b6001819055610ed990611666565b5050505050565b5f610ee9611a48565b905090565b606060128054610a8590612f3f565b5f818152600c6020526040902054610f285760405163fc2b4a7160e01b815260040160405180910390fd5b6005545f828152600c6020526040808220549051631ddd141d60e31b815291926001600160a01b03169163eee8a0e891610f689160040190815260200190565b602060405180830381865afa158015610f83573d5f5f3e3d5ffd5b505050506040513d601f19601f82011682018060405250810190610fa79190612f77565b6001600160a01b031603610fce576040516308d8ffb760e11b815260040160405180910390fd5b5f818152600c60209081526040808320839055600d90915290205461105d907f0000000000000000000000000000000000000000000000000000000000000000907f00000000000000000000000000000000000000000000000000000000000000009061104e906780000000000000009067ffffffffffffffff16612ed5565b67ffffffffffffffff16611a7c565b50565b607860025461106f9190612f14565b421161108e576040516338e6cf8f60e11b815260040160405180910390fd5b600260035410156110b257604051636d46ef9f60e01b815260040160405180910390fd5b6110bd600154611b94565b506001545f80548152600760205260408082208390559054905190917f13c8faf832824237f81f97288c4bcb069df591b1828714e10fc06b989d4e5edf9161110791815260200190565b60405180910390a2565b6040805160018082528183019092525f916020808301908036833701905050905084815f8151811061114557611145612e12565b6020026020010181815250505f84604051602001611173919067ffffffffffffffff91909116815260200190565b60408051601f198184030181526020601f870181900481028401810190925285835292506111bf91849184919088908890819084018382808284375f9201919091525061150792505050565b60405167ffffffffffffffff8616815286907f83bbbc07896439e5d950a6cead04cbc676180af7a61cecf43f5296475057f5719060200160405180910390a2505050505050565b5f816001600160a01b0316836001600160a01b03161480610d2c5750506001600160a01b039182165f908152600f6020908152604080832093909416825291909152205465ffffffffffff1642111590565b5f61126384336119bf565b84339091611296576040516367cfe80560e01b815260048101929092526001600160a01b03166024820152604401610b94565b50506112a28633611206565b863390916112d657604051630f3e596760e31b81526001600160a01b03928316600482015291166024820152604401610b94565b50506112e58686868686611751565b9050610c758133611643565b6112fc338383611baf565b5050565b61130a81336119bf565b8133909161133d576040516367cfe80560e01b815260048101929092526001600160a01b03166024820152604401610b94565b505061134881611b94565b50604051339082907f189c3bfae2e5ce7726b29d57bb6ed0f1a7ebcd153a863ff5ecb6cd998064c98c905f90a350565b5f6113bd3388610be38989898080601f0160208091040260200160405190810160405280939291908181526020018383808284375f9201919091525061168692505050565b90506113c98133611643565b509695505050505050565b5f6113df8633611206565b8633909161141357604051630f3e596760e31b81526001600160a01b03928316600482015291166024820152604401610b94565b50506112e58686610b4b8787878080601f0160208091040260200160405190810160405280939291908181526020018383808284375f9201919091525061168692505050565b606060138054610a8590612f3f565b5f61147382336119bf565b823390916114a6576040516367cfe80560e01b815260048101929092526001600160a01b03166024820152604401610b94565b50506114b28433611206565b843390916114e657604051630f3e596760e31b81526001600160a01b03928316600482015291166024820152604401610b94565b50506114f38484846116d3565b90506114ff8133611643565b509392505050565b5f611513848484611c26565b9050806115335760405163cf6c44e960e01b815260040160405180910390fd5b7fc6366bab028b8d033cb362cfd1f2f3457ef4e92fc738b6788b90d5a7846367a08484604051611564929190612fcc565b60405180910390a150505050565b604051631a4ca37b60e21b81526001600160a01b038481166004830152602482018390523060448301525f91908416906369328dec906064016020604051808303815f875af11580156115c7573d5f5f3e3d5ffd5b505050506040513d601f19601f820116820180604052508101906115eb9190612e41565b90507f73ce532f480864bd2fccd1bcdbb4c8151f02cd9450c4f3e5b834ef74503abdb28160405161161e91815260200190565b60405180910390a19392505050565b5f610a708267ffffffffffffffff166005611cca565b5f82611655576116525f61162d565b92505b61165f8383611d6c565b5090919050565b5f81611678576116755f61162d565b91505b6116828230611dd7565b5090565b5f81515f146116a25761169b83836005611e1d565b9050610a70565b826116ad8133611f2a565b61169b57604051630276b5d960e01b815260048101829052336024820152604401610b94565b5f806001600160a01b0385166117085760405163ee457ebf60e01b81526001600160a01b039091166004820152602401610b94565b505f6001600160a01b03841661173d57604051638d51880160e01b81526001600160a01b039091166004820152602401610b94565b50611749848484611fae565b949350505050565b5f5f61175e8787876116d3565b90505f61176f338989858989611fea565b90505f61178f888a61178a856117845f61162d565b886120ee565b611fae565b905061179b8382611a1a565b9998505050505050505050565b5f60015f546117b79190612e6c565b6001600160a01b0383165f908152600860205260409020549091508111156112fc576001600160a01b0382165f908152600a602090815260408083205484845260099092528220546118169167ffffffffffffffff9081169116612ed5565b905067ffffffffffffffff8116156118ac576001600160a01b0383165f908152600e60205260408120549061185861184e838561212d565b6305f5e100612155565b5f858152600960209081526040808320546001600160a01b038a168452600a909252909120805467ffffffffffffffff191667ffffffffffffffff90921691909117905590506118a885826118c9565b5050505b506001600160a01b03919091165f90815260086020526040902055565b5f806001600160a01b0384166118fe57604051638d51880160e01b81526001600160a01b039091166004820152602401610b94565b50610d2c5f8484611fae565b5f80546001600160a01b03831682526006602052604090912054101561105d575f80546001600160a01b0383168252600660205260408220556003805490919061195390612f27565b9091555050565b5f8261196c576119695f61162d565b92505b8161197d5761197a5f61162d565b91505b610d2c83835f61217b565b5f610a7082611997575f61199a565b60015b60ff165f611cca565b5f826119b5576119b25f611988565b92505b61165f8383611dd7565b5f610d2c8383611f2a565b5f806001600160a01b0384166119ff5760405163ee457ebf60e01b81526001600160a01b039091166004820152602401610b94565b50610d2c835f84611fae565b5f826119b5576119b25f61162d565b5f82611a2c57611a295f61162d565b92505b81611a3d57611a3a5f61162d565b91505b610d2c83835f612241565b5f46600103611a575750600190565b4662aa36a703611a68575061271190565b46617a6903611a7757505f1990565b505f90565b60405163095ea7b360e01b81526001600160a01b0383811660048301526024820183905284169063095ea7b3906044016020604051808303815f875af1158015611ac8573d5f5f3e3d5ffd5b505050506040513d601f19601f82011682018060405250810190611aec9190612ef5565b5060405163617ba03760e01b81526001600160a01b038481166004830152602482018390523060448301525f606483015283169063617ba037906084015f604051808303815f87803b158015611b40575f5ffd5b505af1158015611b52573d5f5f3e3d5ffd5b505050507f0529f0aa2a260a61fb70bb2b83f56f7e69f13615ad79db76c06ba02590132a6381604051611b8791815260200190565b60405180910390a1505050565b5f81611ba657611ba35f61162d565b91505b611682826122cb565b6001600160a01b038381165f818152600f6020908152604080832094871680845294825291829020805465ffffffffffff191665ffffffffffff871690811790915591519182527f921a218a75d18e8ec5704851e6b234a85725b21a2521ce889622c35dedc1fa12910160405180910390a3505050565b7f9e7b61f58c47dc699ac88507c4f5bb9f121c03808c5676a8078fe583e4649702546040516378542ead60e01b81525f915f5160206130fa5f395f51905f52916001600160a01b03909116906378542ead90611c8a90889088908890600401612ff0565b6020604051808303815f875af1158015611ca6573d5f5f3e3d5ffd5b505050506040513d601f19601f82011682018060405250810190610b509190612ef5565b7f9e7b61f58c47dc699ac88507c4f5bb9f121c03808c5676a8078fe583e464970154604051639cd07acb60e01b81525f915f5160206130fa5f395f51905f52916001600160a01b0390911690639cd07acb90611d2c9087908790600401613048565b6020604051808303815f875af1158015611d48573d5f5f3e3d5ffd5b505050506040513d601f19601f820116820180604052508101906117499190612e41565b5f5160206130fa5f395f51905f528054604051630f8e573b60e21b8152600481018590526001600160a01b03848116602483015290911690633e395cec906044015b5f604051808303815f87803b158015611dc5575f5ffd5b505af1158015610a37573d5f5f3e3d5ffd5b5f5160206130fa5f395f51905f528054604051635ca4b5b160e11b8152600481018590526001600160a01b0384811660248301529091169063b9496b6290604401611dae565b7f9e7b61f58c47dc699ac88507c4f5bb9f121c03808c5676a8078fe583e46497015460405163045fc19560e11b81525f915f5160206130fa5f395f51905f52916001600160a01b03909116906308bf832a90611e8390889033908990899060040161305c565b6020604051808303815f875af1158015611e9f573d5f5f3e3d5ffd5b505050506040513d601f19601f82011682018060405250810190611ec39190612e41565b8154604051630f8e573b60e21b8152600481018390523360248201529193506001600160a01b031690633e395cec906044015f604051808303815f87803b158015611f0c575f5ffd5b505af1158015611f1e573d5f5f3e3d5ffd5b50505050509392505050565b5f805f5160206130fa5f395f51905f5280546040516382027b6d60e01b8152600481018790526001600160a01b0386811660248301529293509116906382027b6d90604401602060405180830381865afa158015611f8a573d5f5f3e3d5ffd5b505050506040513d601f19601f820116820180604052508101906117499190612ef5565b5f6001600160a01b03841615611fc757611fc7846117a8565b6001600160a01b03831615611fdf57611fdf836117a8565b611749848484612349565b5f6001600160a01b0385163b156120d7576040516346083bfd60e01b81526001600160a01b038616906346083bfd9061202f908a908a90899089908990600401613092565b6020604051808303815f875af1925050508015612069575060408051601f3d908101601f1916820190925261206691810190612e41565b60015b6120d0573d808015612096576040519150601f19603f3d011682016040523d82523d5f602084013e61209b565b606091505b5080515f036120c857604051638d51880160e01b81526001600160a01b0387166004820152602401610b94565b805181602001fd5b90506120e4565b6120e16001611988565b90505b9695505050505050565b5f83612100576120fd5f611988565b93505b826121115761210e5f61162d565b92505b816121225761211f5f61162d565b91505b611749848484612526565b5f8261213f5761213c5f61162d565b92505b610d2c8367ffffffffffffffff841660016125b3565b5f82612167576121645f61162d565b92505b610d2c8367ffffffffffffffff841661263d565b5f5f821561218e5750600160f81b612191565b505f5b7f9e7b61f58c47dc699ac88507c4f5bb9f121c03808c5676a8078fe583e46497015460405163022f65e760e31b815260048101879052602481018690526001600160f81b0319831660448201525f5160206130fa5f395f51905f52916001600160a01b03169063117b2f38906064015b6020604051808303815f875af115801561221d573d5f5f3e3d5ffd5b505050506040513d601f19601f820116820180604052508101906120e49190612e41565b5f5f82156122545750600160f81b612257565b505f5b7f9e7b61f58c47dc699ac88507c4f5bb9f121c03808c5676a8078fe583e4649701546040516303056db360e31b815260048101879052602481018690526001600160f81b0319831660448201525f5160206130fa5f395f51905f52916001600160a01b03169063182b6d9890606401612201565b6040805160018082528183019092525f5160206130fa5f395f51905f52915f91906020808301908036833701905050905082815f8151811061230f5761230f612e12565b60209081029190910101528154604051637d6e912360e11b81526001600160a01b039091169063fadd224690611dae9084906004016130e7565b5f80806001600160a01b03861661237f57612366601054856126b4565b909250905061237481611666565b506010819055612403565b6001600160a01b0386165f908152600e602052604090205486816123c2576040516317fe473760e21b81526001600160a01b039091166004820152602401610b94565b506123cd81866126fe565b90935091506123db82611666565b506123e68288611a0b565b50506001600160a01b0386165f908152600e602052604090208190555b61241682856124115f61162d565b6120ee565b92506001600160a01b0385166124485761243260105484611a1a565b905061243d81611666565b50601081905561249c565b6001600160a01b0385165f908152600e602052604090205461246a908461195a565b905061247581611666565b506124808186611a0b565b506001600160a01b0385165f908152600e602052604090208190555b6001600160a01b038616156124b7576124b58387611a0b565b505b6001600160a01b038516156124d2576124d08386611a0b565b505b6124db83611666565b5082856001600160a01b0316876001600160a01b03167f67500e8d0ed826d2194f514dd0d8124f35648ab6e3fb5e6ed867134cffe661e960405160405180910390a450509392505050565b5f805f5160206130fa5f395f51905f526001810154604051637702dcff60e01b81526004810188905260248101879052604481018690529192506001600160a01b031690637702dcff906064016020604051808303815f875af115801561258f573d5f5f3e3d5ffd5b505050506040513d601f19601f82011682018060405250810190610b509190612e41565b5f5f82156125c65750600160f81b6125c9565b505f5b7f9e7b61f58c47dc699ac88507c4f5bb9f121c03808c5676a8078fe583e464970154604051630afe14ad60e31b815260048101879052602481018690526001600160f81b0319831660448201525f5160206130fa5f395f51905f52916001600160a01b0316906357f0a56890606401612201565b5f600160f81b815f5160206130fa5f395f51905f526001810154604051635a53accb60e01b815260048101889052602481018790526001600160f81b0319851660448201529192506001600160a01b031690635a53accb906064016020604051808303815f875af115801561258f573d5f5f3e3d5ffd5b5f80836126cf576126c56001611988565b83915091506126f7565b5f6126da858561195a565b90506126e68186612763565b92506126f38382876120ee565b9150505b9250929050565b5f808361273a578261271e576127146001611988565b84915091506126f7565b612728835f612791565b6127315f61162d565b915091506126f7565b6127448484612763565b915061275a826127548686611a1a565b866120ee565b90509250929050565b5f82612775576127725f61162d565b92505b81612786576127835f61162d565b91505b610d2c83835f6127b9565b5f826127a3576127a05f61162d565b92505b610d2c8367ffffffffffffffff84166001612843565b5f5f82156127cc5750600160f81b6127cf565b505f5b7f9e7b61f58c47dc699ac88507c4f5bb9f121c03808c5676a8078fe583e464970154604051631391547f60e01b815260048101879052602481018690526001600160f81b0319831660448201525f5160206130fa5f395f51905f52916001600160a01b031690631391547f90606401612201565b5f5f82156128565750600160f81b612859565b505f5b7f9e7b61f58c47dc699ac88507c4f5bb9f121c03808c5676a8078fe583e46497015460405163f77f3f1d60e01b815260048101879052602481018690526001600160f81b0319831660448201525f5160206130fa5f395f51905f52916001600160a01b03169063f77f3f1d90606401612201565b634e487b7160e01b5f52604160045260245ffd5b5f82601f8301126128f0575f5ffd5b813567ffffffffffffffff81111561290a5761290a6128cd565b604051601f8201601f19908116603f0116810167ffffffffffffffff81118282101715612939576129396128cd565b604052818152838201602001851015612950575f5ffd5b816020850160208301375f918101602001919091529392505050565b5f5f6040838503121561297d575f5ffd5b823567ffffffffffffffff811115612993575f5ffd5b61299f858286016128e1565b925050602083013567ffffffffffffffff8111156129bb575f5ffd5b6126f3858286016128e1565b5f602082840312156129d7575f5ffd5b81356001600160e01b031981168114610d2c575f5ffd5b5f81518084528060208401602086015e5f602082860101526020601f19601f83011685010191505092915050565b602081525f610d2c60208301846129ee565b5f60208284031215612a3e575f5ffd5b5035919050565b6001600160a01b038116811461105d575f5ffd5b5f5f83601f840112612a69575f5ffd5b50813567ffffffffffffffff811115612a80575f5ffd5b6020830191508360208285010111156126f7575f5ffd5b5f5f5f5f60608587031215612aaa575f5ffd5b8435612ab581612a45565b935060208501359250604085013567ffffffffffffffff811115612ad7575f5ffd5b612ae387828801612a59565b95989497509550505050565b5f60208284031215612aff575f5ffd5b8135610d2c81612a45565b5f5f5f5f5f5f5f60a0888a031215612b20575f5ffd5b8735612b2b81612a45565b96506020880135612b3b81612a45565b955060408801359450606088013567ffffffffffffffff811115612b5d575f5ffd5b612b698a828b01612a59565b909550935050608088013567ffffffffffffffff811115612b88575f5ffd5b612b948a828b01612a59565b989b979a50959850939692959293505050565b5f5f5f5f5f60808688031215612bbb575f5ffd5b8535612bc681612a45565b94506020860135612bd681612a45565b935060408601359250606086013567ffffffffffffffff811115612bf8575f5ffd5b612c0488828901612a59565b969995985093965092949392505050565b5f5f60408385031215612c26575f5ffd5b8235612c3181612a45565b946020939093013593505050565b5f5f5f60408486031215612c51575f5ffd5b83359250602084013567ffffffffffffffff811115612c6e575f5ffd5b612c7a86828701612a59565b9497909650939450505050565b67ffffffffffffffff8116811461105d575f5ffd5b5f5f5f5f60608587031215612caf575f5ffd5b843593506020850135612cc181612c87565b9250604085013567ffffffffffffffff811115612ad7575f5ffd5b5f5f60408385031215612ced575f5ffd5b8235612cf881612a45565b91506020830135612d0881612a45565b809150509250929050565b5f5f60408385031215612d24575f5ffd5b8235612d2f81612a45565b9150602083013565ffffffffffff81168114612d08575f5ffd5b5f5f5f5f5f5f60808789031215612d5e575f5ffd5b8635612d6981612a45565b955060208701359450604087013567ffffffffffffffff811115612d8b575f5ffd5b612d9789828a01612a59565b909550935050606087013567ffffffffffffffff811115612db6575f5ffd5b612dc289828a01612a59565b979a9699509497509295939492505050565b5f5f5f60608486031215612de6575f5ffd5b8335612df181612a45565b92506020840135612e0181612a45565b929592945050506040919091013590565b634e487b7160e01b5f52603260045260245ffd5b5f60208284031215612e36575f5ffd5b8151610d2c81612c87565b5f60208284031215612e51575f5ffd5b5051919050565b634e487b7160e01b5f52601160045260245ffd5b81810381811115610a7057610a70612e58565b8082028115828204841417610a7057610a70612e58565b5f82612eb057634e487b7160e01b5f52601260045260245ffd5b500490565b67ffffffffffffffff8181168382160190811115610a7057610a70612e58565b67ffffffffffffffff8281168282160390811115610a7057610a70612e58565b5f60208284031215612f05575f5ffd5b81518015158114610d2c575f5ffd5b80820180821115610a7057610a70612e58565b5f60018201612f3857612f38612e58565b5060010190565b600181811c90821680612f5357607f821691505b602082108103612f7157634e487b7160e01b5f52602260045260245ffd5b50919050565b5f60208284031215612f87575f5ffd5b8151610d2c81612a45565b5f8151808452602084019350602083015f5b82811015612fc2578151865260209586019590910190600101612fa4565b5093949350505050565b604081525f612fde6040830185612f92565b8281036020840152610b5081856129ee565b606081525f6130026060830186612f92565b828103602084015261301481866129ee565b905082810360408401526120e481856129ee565b6054811061304457634e487b7160e01b5f52602160045260245ffd5b9052565b82815260408101610d2c6020830184613028565b8481526001600160a01b0384166020820152608060408201525f61308360808301856129ee565b9050610b506060830184613028565b6001600160a01b03861681526001600160a01b038516602082015283604082015260806060820152816080820152818360a08301375f81830160a090810191909152601f909201601f19160101949350505050565b602081525f610d2c6020830184612f9256fe9e7b61f58c47dc699ac88507c4f5bb9f121c03808c5676a8078fe583e4649700a164736f6c634300081b000a9e7b61f58c47dc699ac88507c4f5bb9f121c03808c5676a8078fe583e46497019e7b61f58c47dc699ac88507c4f5bb9f121c03808c5676a8078fe583e4649700",
  "libraries": {
    "AaveAdapter": "0x612Bb040df7E14E712c2eAD949ECe9d137bcE471"
  },
  "devdoc": {
    "errors": {
      "ERC7984InvalidGatewayRequest(uint256)": [
        {
          "details": "The given gateway request ID `requestId` is invalid."
        }
      ],
      "ERC7984InvalidReceiver(address)": [
        {
          "details": "The given receiver `receiver` is invalid for transfers."
        }
      ],
      "ERC7984InvalidSender(address)": [
        {
          "details": "The given sender `sender` is invalid for transfers."
        }
      ],
      "ERC7984UnauthorizedCaller(address)": [
        {
          "details": "The given caller `caller` is not authorized for the current operation."
        }
      ],
      "ERC7984UnauthorizedSpender(address,address)": [
        {
          "details": "The given holder `holder` is not authorized to spend on behalf of `spender`."
        }
      ],
      "ERC7984UnauthorizedUseOfEncryptedAmount(bytes32,address)": [
        {
          "details": "The caller `user` does not have access to the encrypted amount `amount`. NOTE: Try using the equivalent transfer function with an input proof."
        }
      ],
      "ERC7984ZeroBalance(address)": [
        {
          "details": "The holder `holder` is trying to send tokens but has a balance of 0."
        }
      ]
    },
    "events": {
      "AmountDiscloseRequested(bytes32,address)": {
        "details": "Emitted when an encrypted amount `encryptedAmount` is requested for disclosure by `requester`."
      },
      "AmountDisclosed(bytes32,uint64)": {
        "details": "Emitted when an encrypted amount is disclosed. Accounts with access to the encrypted amount `encryptedAmount` that is also accessible to this contract should be able to disclose the amount. This functionality is implementation specific."
      },
      "ConfidentialTransfer(address,address,bytes32)": {
        "details": "Emitted when a confidential transfer is made from `from` to `to` of encrypted amount `amount`."
      },
      "LiquiditySupplied(uint256)": {
        "params": {
          "amount": "Amount supplied"
        }
      },
      "LiquidityWithdrawn(uint256)": {
        "params": {
          "amount": "Amount withdrawn"
        }
      },
      "OperatorSet(address,address,uint48)": {
        "details": "Emitted when the expiration timestamp for an operator `operator` is updated for a given `holder`. The operator may move any amount of tokens on behalf of the holder until the timestamp `until`."
      }
    },
    "kind": "dev",
    "methods": {
      "callNextRound()": {
        "details": "Calls the Gateway to request decryption of the net amount (supply or withdraw) to be executed on AAVE, based on all user requests collected during the round."
      },
      "confidentialBalanceOf(address)": {
        "details": "Returns the confidential balance of the account `account`."
      },
      "confidentialTotalSupply()": {
        "details": "Returns the confidential total supply of the token."
      },
      "confidentialTransfer(address,bytes32)": {
        "details": "Similar to {confidentialTransfer-address-externalEuint64-bytes} but without an input proof. The caller *must* already be allowed by ACL for the given `amount`."
      },
      "confidentialTransfer(address,bytes32,bytes)": {
        "details": "Transfers the encrypted amount `encryptedAmount` to `to` with the given input proof `inputProof`. Returns the encrypted amount that was actually transferred."
      },
      "confidentialTransferAndCall(address,bytes32,bytes)": {
        "details": "Similar to {confidentialTransfer-address-euint64} but with a callback to `to` after the transfer."
      },
      "confidentialTransferAndCall(address,bytes32,bytes,bytes)": {
        "details": "Similar to {confidentialTransfer-address-externalEuint64-bytes} but with a callback to `to` after the transfer. The callback is made to the {IERC7984Receiver-onConfidentialTransferReceived} function on the to address with the actual transferred amount (may differ from the given `encryptedAmount`) and the given data `data`."
      },
      "confidentialTransferFrom(address,address,bytes32)": {
        "details": "Similar to {confidentialTransferFrom-address-address-externalEuint64-bytes} but without an input proof. The caller *must* be already allowed by ACL for the given `amount`."
      },
      "confidentialTransferFrom(address,address,bytes32,bytes)": {
        "details": "Transfers the encrypted amount `encryptedAmount` from `from` to `to` with the given input proof `inputProof`. `msg.sender` must be either `from` or an operator for `from`. Returns the encrypted amount that was actually transferred."
      },
      "confidentialTransferFromAndCall(address,address,bytes32,bytes)": {
        "details": "Similar to {confidentialTransferFrom-address-address-euint64} but with a callback to `to` after the transfer."
      },
      "confidentialTransferFromAndCall(address,address,bytes32,bytes,bytes)": {
        "details": "Similar to {confidentialTransferFrom-address-address-externalEuint64-bytes} but with a callback to `to` after the transfer."
      },
      "contractURI()": {
        "details": "Returns the contract URI. See https://eips.ethereum.org/EIPS/eip-7572[ERC-7572] for details."
      },
      "decimals()": {
        "details": "Returns the number of decimals of the token. Recommended to be 6."
      },
      "discloseEncryptedAmount(bytes32,uint64,bytes)": {
        "details": "Publicly discloses an encrypted value with a given decryption proof. Emits the {AmountDisclosed} event. NOTE: May not be tied to a prior request via {requestDiscloseEncryptedAmount}."
      },
      "executeRound(bytes,bytes)": {
        "details": "Based on the decrypted net amount, either supplies or withdraws funds from AAVE.",
        "params": {
          "abiEncodedClearValues": "Encoded clear values containing the decrypted net amount for the round",
          "decryptionProof": "Proof of correct decryption provided by the Gateway"
        }
      },
      "finalizeSupply(uint256)": {
        "params": {
          "roundIndex": "The index of the round to finalize"
        }
      },
      "finalizeWithdraw(address,uint256)": {
        "params": {
          "receiver": "The address of the user receiving the withdrawn funds",
          "roundIndex": "The round index for which to finalize the withdrawal"
        }
      },
      "isOperator(address,address)": {
        "details": "Returns true if `spender` is currently an operator for `holder`."
      },
      "name()": {
        "details": "Returns the name of the token."
      },
      "onConfidentialTransferReceived(address,address,bytes32,bytes)": {
        "params": {
          "data": "Additional data (not used)",
          "eAmount": "Encrypted amount to deposit",
          "from": "User address providing the liquidity",
          "operator": "Confidential token address. (Expected to be the wrapper)"
        },
        "returns": {
          "success": "indicating successful receipt"
        }
      },
      "requestDiscloseEncryptedAmount(bytes32)": {
        "details": "Starts the process to disclose an encrypted amount `encryptedAmount` publicly by making it publicly decryptable. Emits the {AmountDiscloseRequested} event. NOTE: Both `msg.sender` and `address(this)` must have permission to access the encrypted amount `encryptedAmount` to request disclosure of the encrypted amount `encryptedAmount`."
      },
      "requestWithdraw(bytes32,bytes)": {
        "params": {
          "eAmount_": "Encrypted amount to withdraw (external representation)",
          "inputProof_": "Proof of correct encryption provided by the user"
        }
      },
      "setOperator(address,uint48)": {
        "details": "Sets `operator` as an operator for `holder` until the timestamp `until`. NOTE: An operator may transfer any amount of tokens on behalf of a holder while approved."
      },
      "supportsInterface(bytes4)": {
        "details": "Returns true if this contract implements the interface defined by `interfaceId`. See the corresponding https://eips.ethereum.org/EIPS/eip-165#how-interfaces-are-identified[ERC section] to learn more about how these ids are created. This function call must use less than 30 000 gas."
      },
      "symbol()": {
        "details": "Returns the symbol of the token."
      }
    },
    "stateVariables": {
      "MIN_DISTINCT_USERS": {
        "details": "This is to ensure sufficient obfuscation of user actions. In production, this should be set to a higher value (e.g., 30 users). TODO: Can we think of an incentive mechanism? Maybe some users does not care about privacy and just want to lend/withdraw quickly?"
      },
      "MIN_TIME_BETWEEN_ROUNDS": {
        "details": "We set 2 minutes for testing purposes, but in production, this should be set to a higher value (e.g., 30 minutes)."
      }
    },
    "version": 1
  },
  "userdoc": {
    "errors": {
      "InvalidKMSSignatures()": [
        {
          "notice": "Returned if the returned KMS signatures are not valid."
        }
      ],
      "SenderNotAllowedToUseHandle(bytes32,address)": [
        {
          "notice": "Returned if the sender is not allowed to use the handle."
        }
      ],
      "ZamaProtocolUnsupported()": [
        {
          "notice": "Returned if the Zama protocol is not supported on the current chain"
        }
      ]
    },
    "events": {
      "LiquiditySupplied(uint256)": {
        "notice": "Emitted when liquidity is supplied to AAVE"
      },
      "LiquidityWithdrawn(uint256)": {
        "notice": "Emitted when liquidity is withdrawn from AAVE"
      },
      "PublicDecryptionVerified(bytes32[],bytes)": {
        "notice": "This event is emitted when public decryption has been successfully verified."
      }
    },
    "kind": "user",
    "methods": {
      "AAVE_POOL_ADDRESS()": {
        "notice": "Address of the AAVE Pool Address"
      },
      "MIN_DISTINCT_USERS()": {
        "notice": "Minimum distinct users required to proceed with the next round."
      },
      "MIN_TIME_BETWEEN_ROUNDS()": {
        "notice": "Minimum time required between rounds to prevent too frequent updates."
      },
      "asset()": {
        "notice": "ERC20 assets used in lending."
      },
      "callNextRound()": {
        "notice": "Finalizes the current round and initiates execution of aggregated operations."
      },
      "currentNumberOfUsers()": {
        "notice": "Current number of distinct users in the lending pool."
      },
      "currentRound()": {
        "notice": "Index of the current round."
      },
      "executeRound(bytes,bytes)": {
        "notice": "Executes the current round by performing the net operation on AAVE and updating rewards."
      },
      "finalizeSupply(uint256)": {
        "notice": "Finalizes the supply operation for a specific round after unwrapping is complete."
      },
      "finalizeWithdraw(address,uint256)": {
        "notice": "Finalizes the withdrawal for a user after the round has been executed"
      },
      "lastUpdateTime()": {
        "notice": "Last round timestamps."
      },
      "nextRoundDelta()": {
        "notice": "Net liquidity change (supply/withdraw) scheduled for the next round. Scaled to INT64_OFFSET to handle supply or withdraw operation."
      },
      "onConfidentialTransferReceived(address,address,bytes32,bytes)": {
        "notice": "Deposit confidential liquidity into the lending pool"
      },
      "requestWithdraw(bytes32,bytes)": {
        "notice": "Request to withdraw confidential liquidity from the lending pool"
      },
      "roundDelta(uint256)": {
        "notice": "Track per round the encrypted liquidity delta"
      }
    },
    "version": 1
  },
  "storageLayout": {
    "storage": [
      {
        "astId": 46870,
        "contract": "contracts/ConfidentialLending.sol:ConfidentialLending",
        "label": "currentRound",
        "offset": 0,
        "slot": "0",
        "type": "t_uint256"
      },
      {
        "astId": 46874,
        "contract": "contracts/ConfidentialLending.sol:ConfidentialLending",
        "label": "nextRoundDelta",
        "offset": 0,
        "slot": "1",
        "type": "t_userDefinedValueType(euint64)47025"
      },
      {
        "astId": 46877,
        "contract": "contracts/ConfidentialLending.sol:ConfidentialLending",
        "label": "lastUpdateTime",
        "offset": 0,
        "slot": "2",
        "type": "t_uint256"
      },
      {
        "astId": 46880,
        "contract": "contracts/ConfidentialLending.sol:ConfidentialLending",
        "label": "currentNumberOfUsers",
        "offset": 0,
        "slot": "3",
        "type": "t_uint256"
      },
      {
        "astId": 46883,
        "contract": "contracts/ConfidentialLending.sol:ConfidentialLending",
        "label": "totalLendedAmount",
        "offset": 0,
        "slot": "4",
        "type": "t_uint256"
      },
      {
        "astId": 46887,
        "contract": "contracts/ConfidentialLending.sol:ConfidentialLending",
        "label": "_confidentialWrapper",
        "offset": 0,
        "slot": "5",
        "type": "t_contract(ERC7984ERC20Wrapper)43111"
      },
      {
        "astId": 46892,
        "contract": "contracts/ConfidentialLending.sol:ConfidentialLending",
        "label": "_userLastRound",
        "offset": 0,
        "slot": "6",
        "type": "t_mapping(t_address,t_uint256)"
      },
      {
        "astId": 46898,
        "contract": "contracts/ConfidentialLending.sol:ConfidentialLending",
        "label": "roundDelta",
        "offset": 0,
        "slot": "7",
        "type": "t_mapping(t_uint256,t_userDefinedValueType(euint64)47025)"
      },
      {
        "astId": 46903,
        "contract": "contracts/ConfidentialLending.sol:ConfidentialLending",
        "label": "_userLastUpdatedRound",
        "offset": 0,
        "slot": "8",
        "type": "t_mapping(t_address,t_uint256)"
      },
      {
        "astId": 46908,
        "contract": "contracts/ConfidentialLending.sol:ConfidentialLending",
        "label": "_globalRewards",
        "offset": 0,
        "slot": "9",
        "type": "t_mapping(t_uint256,t_uint64)"
      },
      {
        "astId": 46913,
        "contract": "contracts/ConfidentialLending.sol:ConfidentialLending",
        "label": "_userRewardIndex",
        "offset": 0,
        "slot": "10",
        "type": "t_mapping(t_address,t_uint64)"
      },
      {
        "astId": 46920,
        "contract": "contracts/ConfidentialLending.sol:ConfidentialLending",
        "label": "eAmountToWithdraw",
        "offset": 0,
        "slot": "11",
        "type": "t_mapping(t_address,t_mapping(t_uint256,t_userDefinedValueType(euint64)47025))"
      },
      {
        "astId": 46925,
        "contract": "contracts/ConfidentialLending.sol:ConfidentialLending",
        "label": "_unwrapRequests",
        "offset": 0,
        "slot": "12",
        "type": "t_mapping(t_uint256,t_userDefinedValueType(euint64)47025)"
      },
      {
        "astId": 46929,
        "contract": "contracts/ConfidentialLending.sol:ConfidentialLending",
        "label": "positions",
        "offset": 0,
        "slot": "13",
        "type": "t_mapping(t_uint256,t_uint64)"
      },
      {
        "astId": 41378,
        "contract": "contracts/ConfidentialLending.sol:ConfidentialLending",
        "label": "_balances",
        "offset": 0,
        "slot": "14",
        "type": "t_mapping(t_address,t_userDefinedValueType(euint64)47025)"
      },
      {
        "astId": 41384,
        "contract": "contracts/ConfidentialLending.sol:ConfidentialLending",
        "label": "_operators",
        "offset": 0,
        "slot": "15",
        "type": "t_mapping(t_address,t_mapping(t_address,t_uint48))"
      },
      {
        "astId": 41387,
        "contract": "contracts/ConfidentialLending.sol:ConfidentialLending",
        "label": "_totalSupply",
        "offset": 0,
        "slot": "16",
        "type": "t_userDefinedValueType(euint64)47025"
      },
      {
        "astId": 41389,
        "contract": "contracts/ConfidentialLending.sol:ConfidentialLending",
        "label": "_name",
        "offset": 0,
        "slot": "17",
        "type": "t_string_storage"
      },
      {
        "astId": 41391,
        "contract": "contracts/ConfidentialLending.sol:ConfidentialLending",
        "label": "_symbol",
        "offset": 0,
        "slot": "18",
        "type": "t_string_storage"
      },
      {
        "astId": 41393,
        "contract": "contracts/ConfidentialLending.sol:ConfidentialLending",
        "label": "_contractURI",
        "offset": 0,
        "slot": "19",
        "type": "t_string_storage"
      }
    ],
    "types": {
      "t_address": {
        "encoding": "inplace",
        "label": "address",
        "numberOfBytes": "20"
      },
      "t_contract(ERC7984ERC20Wrapper)43111": {
        "encoding": "inplace",
        "label": "contract ERC7984ERC20Wrapper",
        "numberOfBytes": "20"
      },
      "t_mapping(t_address,t_mapping(t_address,t_uint48))": {
        "encoding": "mapping",
        "key": "t_address",
        "label": "mapping(address => mapping(address => uint48))",
        "numberOfBytes": "32",
        "value": "t_mapping(t_address,t_uint48)"
      },
      "t_mapping(t_address,t_mapping(t_uint256,t_userDefinedValueType(euint64)47025))": {
        "encoding": "mapping",
        "key": "t_address",
        "label": "mapping(address => mapping(uint256 => euint64))",
        "numberOfBytes": "32",
        "value": "t_mapping(t_uint256,t_userDefinedValueType(euint64)47025)"
      },
      "t_mapping(t_address,t_uint256)": {
        "encoding": "mapping",
        "key": "t_address",
        "label": "mapping(address => uint256)",
        "numberOfBytes": "32",
        "value": "t_uint256"
      },
      "t_mapping(t_address,t_uint48)": {
        "encoding": "mapping",
        "key": "t_address",
        "label": "mapping(address => uint48)",
        "numberOfBytes": "32",
        "value": "t_uint48"
      },
      "t_mapping(t_address,t_uint64)": {
        "encoding": "mapping",
        "key": "t_address",
        "label": "mapping(address => uint64)",
        "numberOfBytes": "32",
        "value": "t_uint64"
      },
      "t_mapping(t_address,t_userDefinedValueType(euint64)47025)": {
        "encoding": "mapping",
        "key": "t_address",
        "label": "mapping(address => euint64)",
        "numberOfBytes": "32",
        "value": "t_userDefinedValueType(euint64)47025"
      },
      "t_mapping(t_uint256,t_uint64)": {
        "encoding": "mapping",
        "key": "t_uint256",
        "label": "mapping(uint256 => uint64)",
        "numberOfBytes": "32",
        "value": "t_uint64"
      },
      "t_mapping(t_uint256,t_userDefinedValueType(euint64)47025)": {
        "encoding": "mapping",
        "key": "t_uint256",
        "label": "mapping(uint256 => euint64)",
        "numberOfBytes": "32",
        "value": "t_userDefinedValueType(euint64)47025"
      },
      "t_string_storage": {
        "encoding": "bytes",
        "label": "string",
        "numberOfBytes": "32"
      },
      "t_uint256": {
        "encoding": "inplace",
        "label": "uint256",
        "numberOfBytes": "32"
      },
      "t_uint48": {
        "encoding": "inplace",
        "label": "uint48",
        "numberOfBytes": "6"
      },
      "t_uint64": {
        "encoding": "inplace",
        "label": "uint64",
        "numberOfBytes": "8"
      },
      "t_userDefinedValueType(euint64)47025": {
        "encoding": "inplace",
        "label": "euint64",
        "numberOfBytes": "32"
      }
    }
  }
}